{
  "address": "0xa2e325c991527940eCFCd35a24cE14387759F9c7",
  "abi": [
    {
      "inputs": [
        {
          "internalType": "uint256",
          "name": "_entryFee",
          "type": "uint256"
        }
      ],
      "stateMutability": "nonpayable",
      "type": "constructor"
    },
    {
      "anonymous": false,
      "inputs": [
        {
          "indexed": false,
          "internalType": "address",
          "name": "user",
          "type": "address"
        },
        {
          "indexed": false,
          "internalType": "uint256",
          "name": "matchId",
          "type": "uint256"
        },
        {
          "indexed": false,
          "internalType": "uint256",
          "name": "amount",
          "type": "uint256"
        }
      ],
      "name": "UserEntered",
      "type": "event"
    },
    {
      "anonymous": false,
      "inputs": [
        {
          "indexed": false,
          "internalType": "address",
          "name": "user",
          "type": "address"
        },
        {
          "indexed": false,
          "internalType": "uint256",
          "name": "matchId",
          "type": "uint256"
        },
        {
          "indexed": false,
          "internalType": "uint256",
          "name": "amount",
          "type": "uint256"
        }
      ],
      "name": "UserLost",
      "type": "event"
    },
    {
      "anonymous": false,
      "inputs": [
        {
          "indexed": false,
          "internalType": "address",
          "name": "user",
          "type": "address"
        },
        {
          "indexed": false,
          "internalType": "uint256",
          "name": "matchId",
          "type": "uint256"
        },
        {
          "indexed": false,
          "internalType": "uint256",
          "name": "amount",
          "type": "uint256"
        }
      ],
      "name": "UserWon",
      "type": "event"
    },
    {
      "inputs": [
        {
          "internalType": "address",
          "name": "",
          "type": "address"
        },
        {
          "internalType": "uint256",
          "name": "",
          "type": "uint256"
        }
      ],
      "name": "BetOn",
      "outputs": [
        {
          "internalType": "uint256",
          "name": "",
          "type": "uint256"
        }
      ],
      "stateMutability": "view",
      "type": "function"
    },
    {
      "inputs": [
        {
          "internalType": "address",
          "name": "",
          "type": "address"
        }
      ],
      "name": "TotalAmount",
      "outputs": [
        {
          "internalType": "uint256",
          "name": "",
          "type": "uint256"
        }
      ],
      "stateMutability": "view",
      "type": "function"
    },
    {
      "inputs": [
        {
          "internalType": "address",
          "name": "",
          "type": "address"
        }
      ],
      "name": "WinningAmount",
      "outputs": [
        {
          "internalType": "uint256",
          "name": "",
          "type": "uint256"
        }
      ],
      "stateMutability": "view",
      "type": "function"
    },
    {
      "inputs": [
        {
          "internalType": "address",
          "name": "",
          "type": "address"
        },
        {
          "internalType": "uint256",
          "name": "",
          "type": "uint256"
        }
      ],
      "name": "betHistory",
      "outputs": [
        {
          "internalType": "uint256",
          "name": "matchId",
          "type": "uint256"
        },
        {
          "internalType": "enum Bet.BetResult",
          "name": "result",
          "type": "uint8"
        },
        {
          "internalType": "uint256",
          "name": "amountWon",
          "type": "uint256"
        },
        {
          "internalType": "uint256",
          "name": "amountBet",
          "type": "uint256"
        },
        {
          "internalType": "uint256",
          "name": "timestamp",
          "type": "uint256"
        }
      ],
      "stateMutability": "view",
      "type": "function"
    },
    {
      "inputs": [
        {
          "internalType": "uint256",
          "name": "matchId",
          "type": "uint256"
        },
        {
          "internalType": "uint256",
          "name": "Bet_On",
          "type": "uint256"
        }
      ],
      "name": "enter",
      "outputs": [],
      "stateMutability": "payable",
      "type": "function"
    },
    {
      "inputs": [],
      "name": "entryFee",
      "outputs": [
        {
          "internalType": "uint256",
          "name": "",
          "type": "uint256"
        }
      ],
      "stateMutability": "view",
      "type": "function"
    },
    {
      "inputs": [
        {
          "internalType": "address",
          "name": "",
          "type": "address"
        },
        {
          "internalType": "uint256",
          "name": "",
          "type": "uint256"
        }
      ],
      "name": "gamblersToAmountBet",
      "outputs": [
        {
          "internalType": "uint256",
          "name": "",
          "type": "uint256"
        }
      ],
      "stateMutability": "view",
      "type": "function"
    },
    {
      "inputs": [],
      "name": "getBalance",
      "outputs": [
        {
          "internalType": "uint256",
          "name": "",
          "type": "uint256"
        }
      ],
      "stateMutability": "view",
      "type": "function"
    },
    {
      "inputs": [
        {
          "internalType": "address",
          "name": "user",
          "type": "address"
        }
      ],
      "name": "getBetHistory",
      "outputs": [
        {
          "internalType": "uint256[]",
          "name": "matchIds",
          "type": "uint256[]"
        },
        {
          "internalType": "uint256[]",
          "name": "results",
          "type": "uint256[]"
        },
        {
          "internalType": "uint256[]",
          "name": "amountsWon",
          "type": "uint256[]"
        },
        {
          "internalType": "uint256[]",
          "name": "amountBet",
          "type": "uint256[]"
        },
        {
          "internalType": "uint256[]",
          "name": "timestamps",
          "type": "uint256[]"
        }
      ],
      "stateMutability": "view",
      "type": "function"
    },
    {
      "inputs": [],
      "name": "getEntryFee",
      "outputs": [
        {
          "internalType": "uint256",
          "name": "",
          "type": "uint256"
        }
      ],
      "stateMutability": "view",
      "type": "function"
    },
    {
      "inputs": [],
      "name": "getOwner",
      "outputs": [
        {
          "internalType": "address",
          "name": "",
          "type": "address"
        }
      ],
      "stateMutability": "view",
      "type": "function"
    },
    {
      "inputs": [
        {
          "internalType": "address",
          "name": "user",
          "type": "address"
        }
      ],
      "name": "getTotalDeposited",
      "outputs": [
        {
          "internalType": "uint256",
          "name": "",
          "type": "uint256"
        }
      ],
      "stateMutability": "view",
      "type": "function"
    },
    {
      "inputs": [
        {
          "internalType": "address",
          "name": "",
          "type": "address"
        },
        {
          "internalType": "uint256",
          "name": "",
          "type": "uint256"
        }
      ],
      "name": "hasEntered",
      "outputs": [
        {
          "internalType": "bool",
          "name": "",
          "type": "bool"
        }
      ],
      "stateMutability": "view",
      "type": "function"
    },
    {
      "inputs": [
        {
          "internalType": "uint256",
          "name": "",
          "type": "uint256"
        },
        {
          "internalType": "uint256",
          "name": "",
          "type": "uint256"
        }
      ],
      "name": "matchGamblers",
      "outputs": [
        {
          "internalType": "address",
          "name": "",
          "type": "address"
        }
      ],
      "stateMutability": "view",
      "type": "function"
    },
    {
      "inputs": [
        {
          "internalType": "uint256",
          "name": "",
          "type": "uint256"
        }
      ],
      "name": "matchWinner",
      "outputs": [
        {
          "internalType": "uint256",
          "name": "",
          "type": "uint256"
        }
      ],
      "stateMutability": "view",
      "type": "function"
    },
    {
      "inputs": [
        {
          "internalType": "uint256",
          "name": "matchId",
          "type": "uint256"
        },
        {
          "internalType": "uint256",
          "name": "win",
          "type": "uint256"
        }
      ],
      "name": "setWinner",
      "outputs": [],
      "stateMutability": "nonpayable",
      "type": "function"
    },
    {
      "inputs": [
        {
          "internalType": "uint256",
          "name": "matchId",
          "type": "uint256"
        }
      ],
      "name": "settleTeamResultLoss",
      "outputs": [],
      "stateMutability": "nonpayable",
      "type": "function"
    },
    {
      "inputs": [
        {
          "internalType": "uint256",
          "name": "matchId",
          "type": "uint256"
        }
      ],
      "name": "settleTeamResultWon",
      "outputs": [],
      "stateMutability": "payable",
      "type": "function"
    },
    {
      "inputs": [],
      "name": "withdraw",
      "outputs": [],
      "stateMutability": "payable",
      "type": "function"
    }
  ],
  "transactionHash": "0x1a9c787a6baf830155d8dd8d90888106521fe36883311d425f521b901e5908b5",
  "args": [
    "1000000000000000000"
  ],
  "numDeployments": 2,
  "solcInputHash": "afc20da1502241aa5bfa33196dfe33ae",
  "bytecode": "0x60c060405234801561001057600080fd5b506040516123f13803806123f1833981810160405281019061003291906100af565b3373ffffffffffffffffffffffffffffffffffffffff1660808173ffffffffffffffffffffffffffffffffffffffff16815250508060a08181525050506100dc565b600080fd5b6000819050919050565b61008c81610079565b811461009757600080fd5b50565b6000815190506100a981610083565b92915050565b6000602082840312156100c5576100c4610074565b5b60006100d38482850161009a565b91505092915050565b60805160a0516122c661012b600039600081816104c5015281816108540152818161089801526118da015260008181610bbe01528181610c4c01528181610d520152610dfd01526122c66000f3fe6080604052600436106101145760003560e01c806368cbce31116100a0578063ce84a53b11610064578063ce84a53b146103c1578063d0a609c114610402578063dce056d11461043f578063e586a4f01461045b578063f48950f21461048657610114565b806368cbce31146102b6578063893d20e8146102df57806389ca38c31461030a57806391bfc62d14610347578063b5d5815f1461038457610114565b806323972aef116100e757806323972aef146101d55780633ccfd60b146101f15780633df71fc6146101fb57806343df828d146102385780634fe6d26c1461027557610114565b8063072ea61c146101195780630c9c31bd1461014457806312065fe0146101815780631bfddb85146101ac575b600080fd5b34801561012557600080fd5b5061012e6104c3565b60405161013b919061192f565b60405180910390f35b34801561015057600080fd5b5061016b600480360381019061016691906119ad565b6104e7565b604051610178919061192f565b60405180910390f35b34801561018d57600080fd5b50610196610530565b6040516101a3919061192f565b60405180910390f35b3480156101b857600080fd5b506101d360048036038101906101ce9190611a06565b610538565b005b6101ef60048036038101906101ea9190611a33565b61088d565b005b6101f9610bbc565b005b34801561020757600080fd5b50610222600480360381019061021d9190611a73565b610cb3565b60405161022f919061192f565b60405180910390f35b34801561024457600080fd5b5061025f600480360381019061025a91906119ad565b610cd8565b60405161026c919061192f565b60405180910390f35b34801561028157600080fd5b5061029c60048036038101906102979190611a73565b610cf0565b6040516102ad959493929190611b2a565b60405180910390f35b3480156102c257600080fd5b506102dd60048036038101906102d89190611a33565b610d50565b005b3480156102eb57600080fd5b506102f4610df9565b6040516103019190611b8c565b60405180910390f35b34801561031657600080fd5b50610331600480360381019061032c9190611a06565b610e21565b60405161033e919061192f565b60405180910390f35b34801561035357600080fd5b5061036e60048036038101906103699190611a73565b610e39565b60405161037b9190611bc2565b60405180910390f35b34801561039057600080fd5b506103ab60048036038101906103a69190611a33565b610e68565b6040516103b89190611b8c565b60405180910390f35b3480156103cd57600080fd5b506103e860048036038101906103e391906119ad565b610eb6565b6040516103f9959493929190611c9b565b60405180910390f35b34801561040e57600080fd5b5061042960048036038101906104249190611a73565b611237565b604051610436919061192f565b60405180910390f35b61045960048036038101906104549190611a06565b61125c565b005b34801561046757600080fd5b506104706118d6565b60405161047d919061192f565b60405180910390f35b34801561049257600080fd5b506104ad60048036038101906104a891906119ad565b6118fe565b6040516104ba919061192f565b60405180910390f35b7f000000000000000000000000000000000000000000000000000000000000000081565b6000600460008373ffffffffffffffffffffffffffffffffffffffff1673ffffffffffffffffffffffffffffffffffffffff168152602001908152602001600020549050919050565b600047905090565b600160003373ffffffffffffffffffffffffffffffffffffffff1673ffffffffffffffffffffffffffffffffffffffff168152602001908152602001600020600082815260200190815260200160002060009054906101000a900460ff166105d5576040517f08c379a00000000000000000000000000000000000000000000000000000000081526004016105cc90611d6e565b60405180910390fd5b60008082815260200190815260200160002054600360003373ffffffffffffffffffffffffffffffffffffffff1673ffffffffffffffffffffffffffffffffffffffff16815260200190815260200160002060008381526020019081526020016000205403610679576040517f08c379a000000000000000000000000000000000000000000000000000000000815260040161067090611e00565b60405180910390fd5b6000600160003373ffffffffffffffffffffffffffffffffffffffff1673ffffffffffffffffffffffffffffffffffffffff168152602001908152602001600020600083815260200190815260200160002060006101000a81548160ff021916908315150217905550600760003373ffffffffffffffffffffffffffffffffffffffff1673ffffffffffffffffffffffffffffffffffffffff1681526020019081526020016000206040518060a001604052808381526020016000600181111561074657610745611ab3565b5b815260200160008152602001600260003373ffffffffffffffffffffffffffffffffffffffff1673ffffffffffffffffffffffffffffffffffffffff16815260200190815260200160002060008581526020019081526020016000205481526020014281525090806001815401808255809150506001900390600052602060002090600502016000909190919091506000820151816000015560208201518160010160006101000a81548160ff0219169083600181111561080a57610809611ab3565b5b021790555060408201518160020155606082015181600301556080820151816004015550507f18cd9054011fa6fe5511881ae9a3094b48737620d95d71bf62a689d32240ada433827f000000000000000000000000000000000000000000000000000000000000000060405161088293929190611e20565b60405180910390a150565b670de0b6b3a76400007f00000000000000000000000000000000000000000000000000000000000000006108c19190611eb5565b341015610903576040517f08c379a00000000000000000000000000000000000000000000000000000000081526004016108fa90611f32565b60405180910390fd5b600160003373ffffffffffffffffffffffffffffffffffffffff1673ffffffffffffffffffffffffffffffffffffffff168152602001908152602001600020600083815260200190815260200160002060009054906101000a900460ff16156109a1576040517f08c379a000000000000000000000000000000000000000000000000000000000815260040161099890611fc4565b60405180910390fd5b34600260003373ffffffffffffffffffffffffffffffffffffffff1673ffffffffffffffffffffffffffffffffffffffff16815260200190815260200160002060008481526020019081526020016000208190555080600360003373ffffffffffffffffffffffffffffffffffffffff1673ffffffffffffffffffffffffffffffffffffffff16815260200190815260200160002060008481526020019081526020016000208190555060056000838152602001908152602001600020339080600181540180825580915050600190039060005260206000200160009091909190916101000a81548173ffffffffffffffffffffffffffffffffffffffff021916908373ffffffffffffffffffffffffffffffffffffffff16021790555060018060003373ffffffffffffffffffffffffffffffffffffffff1673ffffffffffffffffffffffffffffffffffffffff168152602001908152602001600020600084815260200190815260200160002060006101000a81548160ff0219169083151502179055507f3da6c2bb362c11031497f1d09750d45392b2fef10a196776e57a1036d7db2c29338334604051610b5a93929190611e20565b60405180910390a134600460003373ffffffffffffffffffffffffffffffffffffffff1673ffffffffffffffffffffffffffffffffffffffff1681526020019081526020016000206000828254610bb19190611fe4565b925050819055505050565b7f000000000000000000000000000000000000000000000000000000000000000073ffffffffffffffffffffffffffffffffffffffff163373ffffffffffffffffffffffffffffffffffffffff1614610c4a576040517f08c379a0000000000000000000000000000000000000000000000000000000008152600401610c419061208a565b60405180910390fd5b7f000000000000000000000000000000000000000000000000000000000000000073ffffffffffffffffffffffffffffffffffffffff166108fc479081150290604051600060405180830381858888f19350505050158015610cb0573d6000803e3d6000fd5b50565b6002602052816000526040600020602052806000526040600020600091509150505481565b60046020528060005260406000206000915090505481565b60076020528160005260406000208181548110610d0c57600080fd5b9060005260206000209060050201600091509150508060000154908060010160009054906101000a900460ff16908060020154908060030154908060040154905085565b7f000000000000000000000000000000000000000000000000000000000000000073ffffffffffffffffffffffffffffffffffffffff163373ffffffffffffffffffffffffffffffffffffffff1614610dde576040517f08c379a0000000000000000000000000000000000000000000000000000000008152600401610dd59061208a565b60405180910390fd5b80600080848152602001908152602001600020819055505050565b60007f0000000000000000000000000000000000000000000000000000000000000000905090565b60006020528060005260406000206000915090505481565b60016020528160005260406000206020528060005260406000206000915091509054906101000a900460ff1681565b60056020528160005260406000208181548110610e8457600080fd5b906000526020600020016000915091509054906101000a900473ffffffffffffffffffffffffffffffffffffffff1681565b60608060608060606000600760008873ffffffffffffffffffffffffffffffffffffffff1673ffffffffffffffffffffffffffffffffffffffff1681526020019081526020016000208054905090508067ffffffffffffffff811115610f1f57610f1e6120aa565b5b604051908082528060200260200182016040528015610f4d5781602001602082028036833780820191505090505b5095508067ffffffffffffffff811115610f6a57610f696120aa565b5b604051908082528060200260200182016040528015610f985781602001602082028036833780820191505090505b5094508067ffffffffffffffff811115610fb557610fb46120aa565b5b604051908082528060200260200182016040528015610fe35781602001602082028036833780820191505090505b5093508067ffffffffffffffff81111561100057610fff6120aa565b5b60405190808252806020026020018201604052801561102e5781602001602082028036833780820191505090505b5092508067ffffffffffffffff81111561104b5761104a6120aa565b5b6040519080825280602002602001820160405280156110795781602001602082028036833780820191505090505b50915060005b8181101561122c576000600760008a73ffffffffffffffffffffffffffffffffffffffff1673ffffffffffffffffffffffffffffffffffffffff16815260200190815260200160002082815481106110da576110d96120d9565b5b90600052602060002090600502016040518060a0016040529081600082015481526020016001820160009054906101000a900460ff16600181111561112257611121611ab3565b5b600181111561113457611133611ab3565b5b81526020016002820154815260200160038201548152602001600482015481525050905080600001518883815181106111705761116f6120d9565b5b6020026020010181815250508060200151600181111561119357611192611ab3565b5b8783815181106111a6576111a56120d9565b5b60200260200101818152505080604001518683815181106111ca576111c96120d9565b5b60200260200101818152505080606001518583815181106111ee576111ed6120d9565b5b6020026020010181815250508060800151848381518110611212576112116120d9565b5b60200260200101818152505050808060010191505061107f565b505091939590929450565b6003602052816000526040600020602052806000526040600020600091509150505481565b600160003373ffffffffffffffffffffffffffffffffffffffff1673ffffffffffffffffffffffffffffffffffffffff168152602001908152602001600020600082815260200190815260200160002060009054906101000a900460ff166112f9576040517f08c379a00000000000000000000000000000000000000000000000000000000081526004016112f090611d6e565b60405180910390fd5b60008082815260200190815260200160002054600360003373ffffffffffffffffffffffffffffffffffffffff1673ffffffffffffffffffffffffffffffffffffffff1681526020019081526020016000206000838152602001908152602001600020541461139d576040517f08c379a00000000000000000000000000000000000000000000000000000000081526004016113949061217a565b60405180910390fd5b60008060006005600085815260200190815260200160002080548060200260200160405190810160405280929190818152602001828054801561143557602002820191906000526020600020905b8160009054906101000a900473ffffffffffffffffffffffffffffffffffffffff1673ffffffffffffffffffffffffffffffffffffffff16815260200190600101908083116113eb575b505050505090506000805b82518110156115d2576000808781526020019081526020016000205460036000858481518110611473576114726120d9565b5b602002602001015173ffffffffffffffffffffffffffffffffffffffff1673ffffffffffffffffffffffffffffffffffffffff1681526020019081526020016000206000888152602001908152602001600020540361154c57600260008483815181106114e3576114e26120d9565b5b602002602001015173ffffffffffffffffffffffffffffffffffffffff1673ffffffffffffffffffffffffffffffffffffffff168152602001908152602001600020600087815260200190815260200160002054915083806115449061219a565b9450506115c5565b60026000848381518110611563576115626120d9565b5b602002602001015173ffffffffffffffffffffffffffffffffffffffff1673ffffffffffffffffffffffffffffffffffffffff168152602001908152602001600020600087815260200190815260200160002054856115c29190611fe4565b94505b8080600101915050611440565b5060008311611616576040517f08c379a000000000000000000000000000000000000000000000000000000000815260040161160d9061222e565b60405180910390fd5b6000600260003373ffffffffffffffffffffffffffffffffffffffff1673ffffffffffffffffffffffffffffffffffffffff1681526020019081526020016000206000878152602001908152602001600020549050600082828761167a919061224e565b6116849190611eb5565b9050600081600260003373ffffffffffffffffffffffffffffffffffffffff1673ffffffffffffffffffffffffffffffffffffffff16815260200190815260200160002060008a8152602001908152602001600020546116e49190611fe4565b90503373ffffffffffffffffffffffffffffffffffffffff166108fc829081150290604051600060405180830381858888f1935050505015801561172c573d6000803e3d6000fd5b506000600160003373ffffffffffffffffffffffffffffffffffffffff1673ffffffffffffffffffffffffffffffffffffffff16815260200190815260200160002060008a815260200190815260200160002060006101000a81548160ff021916908315150217905550600760003373ffffffffffffffffffffffffffffffffffffffff1673ffffffffffffffffffffffffffffffffffffffff1681526020019081526020016000206040518060a001604052808a81526020016001808111156117f9576117f8611ab3565b5b81526020018481526020018581526020014281525090806001815401808255809150506001900390600052602060002090600502016000909190919091506000820151816000015560208201518160010160006101000a81548160ff0219169083600181111561186c5761186b611ab3565b5b021790555060408201518160020155606082015181600301556080820151816004015550507f5d65a272414584c001aa531e37121612a5b4b32aefddfe422f936093de33b10f3389836040516118c493929190611e20565b60405180910390a15050505050505050565b60007f0000000000000000000000000000000000000000000000000000000000000000905090565b60066020528060005260406000206000915090505481565b6000819050919050565b61192981611916565b82525050565b60006020820190506119446000830184611920565b92915050565b600080fd5b600073ffffffffffffffffffffffffffffffffffffffff82169050919050565b600061197a8261194f565b9050919050565b61198a8161196f565b811461199557600080fd5b50565b6000813590506119a781611981565b92915050565b6000602082840312156119c3576119c261194a565b5b60006119d184828501611998565b91505092915050565b6119e381611916565b81146119ee57600080fd5b50565b600081359050611a00816119da565b92915050565b600060208284031215611a1c57611a1b61194a565b5b6000611a2a848285016119f1565b91505092915050565b60008060408385031215611a4a57611a4961194a565b5b6000611a58858286016119f1565b9250506020611a69858286016119f1565b9150509250929050565b60008060408385031215611a8a57611a8961194a565b5b6000611a9885828601611998565b9250506020611aa9858286016119f1565b9150509250929050565b7f4e487b7100000000000000000000000000000000000000000000000000000000600052602160045260246000fd5b60028110611af357611af2611ab3565b5b50565b6000819050611b0482611ae2565b919050565b6000611b1482611af6565b9050919050565b611b2481611b09565b82525050565b600060a082019050611b3f6000830188611920565b611b4c6020830187611b1b565b611b596040830186611920565b611b666060830185611920565b611b736080830184611920565b9695505050505050565b611b868161196f565b82525050565b6000602082019050611ba16000830184611b7d565b92915050565b60008115159050919050565b611bbc81611ba7565b82525050565b6000602082019050611bd76000830184611bb3565b92915050565b600081519050919050565b600082825260208201905092915050565b6000819050602082019050919050565b611c1281611916565b82525050565b6000611c248383611c09565b60208301905092915050565b6000602082019050919050565b6000611c4882611bdd565b611c528185611be8565b9350611c5d83611bf9565b8060005b83811015611c8e578151611c758882611c18565b9750611c8083611c30565b925050600181019050611c61565b5085935050505092915050565b600060a0820190508181036000830152611cb58188611c3d565b90508181036020830152611cc98187611c3d565b90508181036040830152611cdd8186611c3d565b90508181036060830152611cf18185611c3d565b90508181036080830152611d058184611c3d565b90509695505050505050565b600082825260208201905092915050565b7f5573657220686173206e6f7420656e74657265642074686973206d6174636800600082015250565b6000611d58601f83611d11565b9150611d6382611d22565b602082019050919050565b60006020820190508181036000830152611d8781611d4b565b9050919050565b7f596f7572207465616d20776f6e3b2063616e6e6f7420736574746c652061732060008201527f6c6f737300000000000000000000000000000000000000000000000000000000602082015250565b6000611dea602483611d11565b9150611df582611d8e565b604082019050919050565b60006020820190508181036000830152611e1981611ddd565b9050919050565b6000606082019050611e356000830186611b7d565b611e426020830185611920565b611e4f6040830184611920565b949350505050565b7f4e487b7100000000000000000000000000000000000000000000000000000000600052601260045260246000fd5b7f4e487b7100000000000000000000000000000000000000000000000000000000600052601160045260246000fd5b6000611ec082611916565b9150611ecb83611916565b925082611edb57611eda611e57565b5b828204905092915050565b7f496e73756666696369656e7420656e7472792066656500000000000000000000600082015250565b6000611f1c601683611d11565b9150611f2782611ee6565b602082019050919050565b60006020820190508181036000830152611f4b81611f0f565b9050919050565b7f596f75206861766520616c726561647920656e74657265642074686973206d6160008201527f7463680000000000000000000000000000000000000000000000000000000000602082015250565b6000611fae602383611d11565b9150611fb982611f52565b604082019050919050565b60006020820190508181036000830152611fdd81611fa1565b9050919050565b6000611fef82611916565b9150611ffa83611916565b925082820190508082111561201257612011611e86565b5b92915050565b7f4f6e6c7920746865206f776e65722063616e2063616c6c20746869732066756e60008201527f6374696f6e000000000000000000000000000000000000000000000000000000602082015250565b6000612074602583611d11565b915061207f82612018565b604082019050919050565b600060208201905081810360008301526120a381612067565b9050919050565b7f4e487b7100000000000000000000000000000000000000000000000000000000600052604160045260246000fd5b7f4e487b7100000000000000000000000000000000000000000000000000000000600052603260045260246000fd5b7f596f7520646964206e6f7420626574206f6e207468652077696e6e696e67207460008201527f65616d0000000000000000000000000000000000000000000000000000000000602082015250565b6000612164602383611d11565b915061216f82612108565b604082019050919050565b6000602082019050818103600083015261219381612157565b9050919050565b60006121a582611916565b91507fffffffffffffffffffffffffffffffffffffffffffffffffffffffffffffffff82036121d7576121d6611e86565b5b600182019050919050565b7f4e6f2077696e6e65727320666f756e6400000000000000000000000000000000600082015250565b6000612218601083611d11565b9150612223826121e2565b602082019050919050565b600060208201905081810360008301526122478161220b565b9050919050565b600061225982611916565b915061226483611916565b925082820261227281611916565b9150828204841483151761228957612288611e86565b5b509291505056fea2646970667358221220a7f224320e8455933741c7c3b0735b36d8fc7936bba5f978566847f3507c36c864736f6c634300081c0033",
  "devdoc": {
    "kind": "dev",
    "methods": {
      "enter(uint256,uint256)": {
        "params": {
          "Bet_On": "The team or option the user is betting on.",
          "matchId": "The match identifier."
        }
      },
      "getBetHistory(address)": {
        "params": {
          "user": "The user's address."
        },
        "returns": {
          "amountBet": "Array of the bet amount for each match (if any).",
          "amountsWon": "Array of extra amounts won.",
          "matchIds": "Array of match identifiers.",
          "results": "Array of results (0 for Loss, 1 for Win).",
          "timestamps": "Array of settlement timestamps."
        }
      },
      "getTotalDeposited(address)": {
        "params": {
          "user": "The user's address."
        }
      },
      "setWinner(uint256,uint256)": {
        "params": {
          "matchId": "The match identifier.",
          "win": "The winning team/option."
        }
      },
      "settleTeamResultLoss(uint256)": {
        "params": {
          "matchId": "The match identifier."
        }
      },
      "settleTeamResultWon(uint256)": {
        "params": {
          "matchId": "The match identifier."
        }
      }
    },
    "version": 1
  },
  "userdoc": {
    "kind": "user",
    "methods": {
      "enter(uint256,uint256)": {
        "notice": "Allows a user to enter a bet for a specific match (matchId should be 1, 2, 3, 4, or 5)."
      },
      "getBetHistory(address)": {
        "notice": "Retrieves a user's bet history."
      },
      "getTotalDeposited(address)": {
        "notice": "Returns the overall deposited amount for a given user (across all matches)."
      },
      "setWinner(uint256,uint256)": {
        "notice": "Allows the owner to set the winning team for a specific match."
      },
      "settleTeamResultLoss(uint256)": {
        "notice": "Settles a lost bet for a given match.         This function can only be called if the user bet on the losing team."
      },
      "settleTeamResultWon(uint256)": {
        "notice": "Settles a winning bet for a given match.         This function can only be called if the user bet on the winning team."
      },
      "withdraw()": {
        "notice": "Allows the owner to withdraw the entire contract balance."
      }
    },
    "version": 1
  },
  "storageLayout": {
    "storage": [
      {
        "astId": 7101,
        "contract": "contracts/Bet.sol:Bet",
        "label": "matchWinner",
        "offset": 0,
        "slot": "0",
        "type": "t_mapping(t_uint256,t_uint256)"
      },
      {
        "astId": 7107,
        "contract": "contracts/Bet.sol:Bet",
        "label": "hasEntered",
        "offset": 0,
        "slot": "1",
        "type": "t_mapping(t_address,t_mapping(t_uint256,t_bool))"
      },
      {
        "astId": 7113,
        "contract": "contracts/Bet.sol:Bet",
        "label": "gamblersToAmountBet",
        "offset": 0,
        "slot": "2",
        "type": "t_mapping(t_address,t_mapping(t_uint256,t_uint256))"
      },
      {
        "astId": 7119,
        "contract": "contracts/Bet.sol:Bet",
        "label": "BetOn",
        "offset": 0,
        "slot": "3",
        "type": "t_mapping(t_address,t_mapping(t_uint256,t_uint256))"
      },
      {
        "astId": 7123,
        "contract": "contracts/Bet.sol:Bet",
        "label": "TotalAmount",
        "offset": 0,
        "slot": "4",
        "type": "t_mapping(t_address,t_uint256)"
      },
      {
        "astId": 7128,
        "contract": "contracts/Bet.sol:Bet",
        "label": "matchGamblers",
        "offset": 0,
        "slot": "5",
        "type": "t_mapping(t_uint256,t_array(t_address)dyn_storage)"
      },
      {
        "astId": 7132,
        "contract": "contracts/Bet.sol:Bet",
        "label": "WinningAmount",
        "offset": 0,
        "slot": "6",
        "type": "t_mapping(t_address,t_uint256)"
      },
      {
        "astId": 7177,
        "contract": "contracts/Bet.sol:Bet",
        "label": "betHistory",
        "offset": 0,
        "slot": "7",
        "type": "t_mapping(t_address,t_array(t_struct(BetRecord)7171_storage)dyn_storage)"
      }
    ],
    "types": {
      "t_address": {
        "encoding": "inplace",
        "label": "address",
        "numberOfBytes": "20"
      },
      "t_array(t_address)dyn_storage": {
        "base": "t_address",
        "encoding": "dynamic_array",
        "label": "address[]",
        "numberOfBytes": "32"
      },
      "t_array(t_struct(BetRecord)7171_storage)dyn_storage": {
        "base": "t_struct(BetRecord)7171_storage",
        "encoding": "dynamic_array",
        "label": "struct Bet.BetRecord[]",
        "numberOfBytes": "32"
      },
      "t_bool": {
        "encoding": "inplace",
        "label": "bool",
        "numberOfBytes": "1"
      },
      "t_enum(BetResult)7159": {
        "encoding": "inplace",
        "label": "enum Bet.BetResult",
        "numberOfBytes": "1"
      },
      "t_mapping(t_address,t_array(t_struct(BetRecord)7171_storage)dyn_storage)": {
        "encoding": "mapping",
        "key": "t_address",
        "label": "mapping(address => struct Bet.BetRecord[])",
        "numberOfBytes": "32",
        "value": "t_array(t_struct(BetRecord)7171_storage)dyn_storage"
      },
      "t_mapping(t_address,t_mapping(t_uint256,t_bool))": {
        "encoding": "mapping",
        "key": "t_address",
        "label": "mapping(address => mapping(uint256 => bool))",
        "numberOfBytes": "32",
        "value": "t_mapping(t_uint256,t_bool)"
      },
      "t_mapping(t_address,t_mapping(t_uint256,t_uint256))": {
        "encoding": "mapping",
        "key": "t_address",
        "label": "mapping(address => mapping(uint256 => uint256))",
        "numberOfBytes": "32",
        "value": "t_mapping(t_uint256,t_uint256)"
      },
      "t_mapping(t_address,t_uint256)": {
        "encoding": "mapping",
        "key": "t_address",
        "label": "mapping(address => uint256)",
        "numberOfBytes": "32",
        "value": "t_uint256"
      },
      "t_mapping(t_uint256,t_array(t_address)dyn_storage)": {
        "encoding": "mapping",
        "key": "t_uint256",
        "label": "mapping(uint256 => address[])",
        "numberOfBytes": "32",
        "value": "t_array(t_address)dyn_storage"
      },
      "t_mapping(t_uint256,t_bool)": {
        "encoding": "mapping",
        "key": "t_uint256",
        "label": "mapping(uint256 => bool)",
        "numberOfBytes": "32",
        "value": "t_bool"
      },
      "t_mapping(t_uint256,t_uint256)": {
        "encoding": "mapping",
        "key": "t_uint256",
        "label": "mapping(uint256 => uint256)",
        "numberOfBytes": "32",
        "value": "t_uint256"
      },
      "t_struct(BetRecord)7171_storage": {
        "encoding": "inplace",
        "label": "struct Bet.BetRecord",
        "members": [
          {
            "astId": 7161,
            "contract": "contracts/Bet.sol:Bet",
            "label": "matchId",
            "offset": 0,
            "slot": "0",
            "type": "t_uint256"
          },
          {
            "astId": 7164,
            "contract": "contracts/Bet.sol:Bet",
            "label": "result",
            "offset": 0,
            "slot": "1",
            "type": "t_enum(BetResult)7159"
          },
          {
            "astId": 7166,
            "contract": "contracts/Bet.sol:Bet",
            "label": "amountWon",
            "offset": 0,
            "slot": "2",
            "type": "t_uint256"
          },
          {
            "astId": 7168,
            "contract": "contracts/Bet.sol:Bet",
            "label": "amountBet",
            "offset": 0,
            "slot": "3",
            "type": "t_uint256"
          },
          {
            "astId": 7170,
            "contract": "contracts/Bet.sol:Bet",
            "label": "timestamp",
            "offset": 0,
            "slot": "4",
            "type": "t_uint256"
          }
        ],
        "numberOfBytes": "160"
      },
      "t_uint256": {
        "encoding": "inplace",
        "label": "uint256",
        "numberOfBytes": "32"
      }
    }
  }
}